:100000000C9460030C947D030C947D030C947D038D
:100010000C947D030C947D030C947D030C947D0360
:100020000C947D030C947D030C947D030C947D0350
:100030000C947D030C947D030C947D030C947D0340
:100040000C947D030C947D030C947D030C947D0330
:100050000C947D030C947D030C947D030C947D0320
:100060000C947D030C947D030C947D030C947D0310
:1000700000000000005C00000C000C007C287C28C4
:1000800058DC68002410480028542840000C000068
:10009000007884008478000054385400107C1000EC
:1000A00080400000101010000040000060100C00A4
:1000B00038543800487C40004864580044542C00B0
:1000C0001C107C005C5424003854240064140C0080
:1000D00068542C0048543800004800008048000054
:1000E0001028440028282800442810000454080040
:1000F00038445C00781478007C5428003844280088
:100100007C4438007C5444007C140400384474005F
:100110007C107C00447C440020403C007C106C003F
:100120007C4040007C187C0078103C00384438004B
:100130007C1408003844B8007C146800485424003B
:10014000047C04007C407C003C603C007C307C00F3
:100150006C106C000C700C0064544C00007C44006B
:100160000C106000447C00000804080080808000BF
:1001700000040800304878007C48300030484800CF
:1001800030487C00306850001078140090A8780047
:100190007C08700050744000808074007C106800FF
:1001A000447C4000781078007808700030483000B7
:1001B000F82810003048F80078100800505828003F
:1001C000083C4800384078003840380078207800F3
:1001D0004830480098A0780048685800107884009B
:1001E000007C00008478100008040804000000006F
:1001F0000000005F00000007000700147F147F1458
:10020000242A7F2A1223130864623649552250009B
:1002100005030000001C2241000041221C00082AA6
:100220001C2A0808083E080800503000000808088A
:100230000808006060000020100804023E51494593
:100240003E00427F400042615149462141454B31C9
:100250001814127F1027454545393C4A4949300159
:10026000710905033649494936064949291E0036B0
:100270003600000056360000000814224114141401
:10028000141441221408000201510906324979412F
:100290003E7E1111117E7F494949363E414141223E
:1002A0007F4141221C7F494949417F090901013EA3
:1002B000414151327F0808087F00417F41002040C2
:1002C000413F017F081422417F404040407F0204AB
:1002D000027F7F0408107F3E4141413E7F090909AA
:1002E000063E4151215E7F09192946464949493157
:1002F00001017F01013F4040403F1F2040201F7F00
:100300002018207F631408146303047804036151E8
:1003100049454300007F4141020408102041417FCC
:100320000000040201020440404040400001020479
:100330000020545454787F4844443838444444207E
:10034000384444487F3854545418087E0901020840
:100350001454543C7F0804047800447D400020403D
:10036000443D00007F10284400417F40007C041879
:1003700004787C0804047838444444387C14141409
:1003800008081414187C7C080404084854545420A9
:10039000043F4440203C4040207C1C2040201C3C2A
:1003A0004030403C44281028440C5050503C446499
:1003B000544C44000836410000007F0000004136E4
:1003C000080002010302010000000000000000001C
:1003D000065F5F0600000000070700070700001423
:1003E0007F7F147F7F1400242E6B6B3A120000462F
:1003F0006630180C666200307A4F5D377A48000428
:1004000007030000000000001C3E634100000000E4
:1004100041633E1C000000082A3E1C1C3E2A0808BE
:10042000083E3E0808000000A0E060000000000850
:100430000808080808000000006060000000006074
:1004400030180C060301003E7F594D7F3E000042EC
:10045000427F7F40400000627359496F660000226E
:100460006349497F360000181C16137F7F10002750
:100470006745457D3900003C7E4B497930000003DB
:100480006371190F070000367F49497F3600000667
:100490004F49693F1E000000006C6C000000000026
:1004A000A0EC6C00000000081C3663410000001442
:1004B00014141414140000004163361C08000002D8
:1004C0000351590F0600003E7F415D5D1F1E007CF9
:1004D0007E13137E7C0000417F7F49497F36001CDC
:1004E0003E634141632200417F7F41637F1C0041A5
:1004F0007F7F495D416300417F7F491D0103001CEF
:100500003E6341517372007F7F08087F7F000000C7
:10051000417F7F41000000307040417F3F0100413A
:100520007F7F081C776300417F7F41406070007FC0
:100530007F060C067F7F007F7F060C187F7F001CE4
:100540003E6341633E1C00417F7F49090F06001E48
:100550003F21717F5E0000417F7F19396F46002681
:10056000674D597B32000003417F7F410300007FCC
:100570007F40407F7F00001F3F60603F1F00007F83
:100580007F3018307F7F0063771C081C776300077B
:100590004F78784F0700006773594D47637100002B
:1005A0007F7F41410000000103060C18306000000D
:1005B00041417F7F000000080C0603060C08008004
:1005C000808080808080800000030704000000207D
:1005D0007454543C784000413F7F44447C38003898
:1005E0007C44446C280000307848493F7F40003804
:1005F0007C54545C180000487E7F49030200009838
:10060000BCA4A4F87C0400417F7F08047C7800002F
:10061000447D7D4000000040C484FD7D0000004119
:100620007F7F10386C440000417F7F400000007CD9
:100630007C0C180C7C78007C7C04047C78000038EE
:100640007C44447C38000084FCF8A4243C18001846
:100650003C24A4F8FC8400447C78441C1800004826
:100660005C54547424000000043E7F442400003C89
:100670007C40403C7C40001C3C60603C1C00003CDA
:100680007C6030607C3C00446C3810386C44009CCA
:10069000BCA0A0FC7C00004C64745C4C64000008AE
:1006A000083E7741410000000000777700000041DC
:1006B00041773E0808000002030103020301000025
:1006C00011241FBECFEFD4E0DEBFCDBF12E0A0E00B
:1006D000B1E0EAE6F1E202C005900D92AE3BB1074F
:1006E000D9F722E0AEEBB2E001C01D92AD3CB207FB
:1006F000E1F70E947F030C94B3100C940000CDB777
:10070000DEB72E970FB6F894DEBF0FBECDBF8FE1D8
:1007100090E00E943E0488E191E09F938F930E94B5
:10072000FE0B6DE474E08AE494E00E94B40B0E9436
:1007300050040E94F7040E94EF040E941505E82E61
:10074000F92EF70183811F928F9382811F928F93DD
:1007500081811F928F9380811F928F9380E291E01D
:100760009F938F930E94FE0B0E945F048CE291E0A6
:100770009F938F930E94FE0B8EE0EAE0F1E0DE0192
:10078000119601900D928A95E1F70E9484060E94CD
:1007900022070E94680767E0CE0101960E94E207E7
:1007A000B8980FB6F894DEBF0FBECDBF0F2EFBE397
:1007B0008F2EF1E09F2EF02D0F2EF1E4AF2EF1E001
:1007C000BF2EF02D0F2EF4E4CF2EF1E0DF2EF02D12
:1007D00081E00E94FA04182F80E00E94FA04082F9A
:1007E00083E00E94FA0482E00E94FA04612FC701AC
:1007F0000E949705182F602FC7010E94F605682FE9
:10080000812F0E945506482F592F67E0CE0101968F
:100810000E943108B09B0EC00E94DC08162F74FDA8
:1008200020C015FFD5CFDF92CF920E94FE0B0F9014
:100830000F90CECF8091C202E1E0F0E0EC0FFD1FFF
:10084000E80FF11DE80FF11D81818F9380818F9357
:100850009F928F920E94FE0B0F900F900F900F901F
:10086000DBCFBF92AF920E94FE0B0F900F90D9CFBB
:100870005D9BFECF8CB981E090E0089590BD89B971
:1008800088E18AB98EE880BD08955F9BFECF8CB168
:1008900090E008950E94380408950E944504089548
:1008A00085B7806885BF80B7806280BF0895FB01EF
:1008B000F05F80830895FC01F05F80810895CF92FE
:1008C000DF92EF92FF920F931F93CF93DF9381E715
:1008D00091E00E94140C0E94940BC82ED92E0E9405
:1008E000990B00E010E0C0E0D0E00F2EF7E8EF2E0B
:1008F000F1E0FF2EF02D06C00F5F1F4F01159CE0A9
:100900001907F9F00E94940B282F392FF801FC5E8B
:1009100080834081481781F333273F932F931F92A1
:100920004F931F930F93FF92EF920E94FE0B21961D
:100930008DB79EB708960FB6F8949EBF0FBE8DBFB9
:10094000DBCF8C2D9D2D0E94990BC12CD12C00E06A
:1009500010E00F2EF2ECEF2EF1E0FF2EF02D07C08D
:100960009FEFC91AD90AC1148CE0D806F9F00E9489
:10097000940B282F392FF601FC5E8081821781F3BA
:1009800033273F932F931F928F93DF92CF92FF9243
:10099000EF920E94FE0B0F5F1F4F8DB79EB7089618
:1009A0000FB6F8949EBF0FBE8DBFDACF1F930F9383
:1009B000DF93CF9381E092E09F938F930E94FE0B91
:1009C0000F900F900F900F900F900F90DF91CF919D
:1009D0001F910F91FF90EF90DF90CF9008958D9A27
:1009E0001BBC1ABC80E48FBD89E08EBD08951ABA85
:1009F00030980895CF93DF930F92CDB7DEB7109262
:100A00000010289BFECF482F50E020E030E0E0E0CF
:100A1000F0E1908199832F5F3F4F42175307CCF746
:100A200089810F90DF91CF9108950F931F93CF93FA
:100A3000DF938AE592E00E94140C2FEF88E09DE39B
:100A4000215080409040E1F700C0000081E00E940A
:100A5000FA0481E00E94FA040EEB12E0F8018083B0
:100A60001F928F93CEE6D2E0DF93CF930E94FE0BCE
:100A700085E792E00E94140C8FEF98E0EDE381503F
:100A80009040E040E1F700C0000081E00E94FA04DD
:100A900081E00E94FA04F80181831F928F93DF9313
:100AA000CF930E94FE0B88E892E00E94140C8FEF17
:100AB00098E0EDE381509040E040E1F700C0000095
:100AC00080E00E94FA0480E00E94FA04F801828328
:100AD0001F928F93DF93CF930E94FE0B84E992E0E5
:100AE0000E94140C8FEF98E0EDE381509040E040BD
:100AF000E1F700C0000080E00E94FA0480E00E945C
:100B0000FA04F80183831F928F93DF93CF930E949F
:100B1000FE0B8DB79EB740960FB6F8949EBF0FBEE2
:100B20008DBFC801DF91CF911F910F910895CF9292
:100B3000DF92EF92FF920F931F93CF93DF93E82FF3
:100B4000F92FC080D12CC181D0E070E080E090E02E
:100B50000E944F0AE62EF72E082F192FB6016C0FB0
:100B60007D1F072E000C880B990B0E944F0A20E076
:100B700030E040E05FE30E94DB0A262F372F482F4A
:100B8000592F6E2D7F2D802F912F0E943809E62E30
:100B9000F72E082F192FBE016C197D09072E000CA6
:100BA000880B990B0E944F0A20E030E040E05FE3A1
:100BB0000E94DB0A262F372F482F592F6E2D7F2DAD
:100BC000802F912F0E94A50920E030E048EC52E4EC
:100BD0000E94DB0A0E94170A862FDF91CF911F9196
:100BE0000F91FF90EF90DF90CF900895CF92DF921A
:100BF000EF92FF920F931F93CF93DF93E82FF92F7C
:100C0000C280D12CC381D0E070E080E090E00E94EF
:100C10004F0AE62EF72E082F192FB6016C0F7D1FF5
:100C2000072E000C880B990B0E944F0A20E030E041
:100C300040E05FE30E94DB0A262F372F482F592F11
:100C40006E2D7F2D802F912F0E943809E62EF72ED2
:100C5000082F192FBE016C197D09072E000C880B77
:100C6000990B0E944F0A20E030E040E05FE30E94D1
:100C7000DB0A262F372F482F592F6E2D7F2D802FDF
:100C8000912F0E94A50920E030E048EC52E40E9438
:100C9000DB0A0E94170A862FDF91CF911F910F91D7
:100CA000FF90EF90DF90CF900895803B6CF467FD4C
:100CB000619581E090E0643110F480E090E0880F6D
:100CC000991F880F991F0895813554F067FD61952C
:100CD000643118F084E090E0089581E090E0089598
:100CE00087FD8195843138F4613544F4603B4CF4E0
:100CF00083E090E0089584E090E0089582E090E041
:100D0000089584E090E0089587B38E6B87BBBE980A
:100D100081E58DB988B38A6188BB81B3886181BB65
:100D2000949A0895823041F0833051F0813059F423
:100D3000C398C49A949A0895C498C39A949A0895AB
:100D40009498C49AC39A0895CF93C82F862F0E946F
:100D50009206CFB9779BFECFCF9108951F93CF9383
:100D6000DF93C82FD92F162F842F0E9492061115BA
:100D700051F0FE01C10FD11D81918FB9779BFECF3C
:100D8000EC17FD07C9F7DF91CF911F9108958230CD
:100D900031F0833031F0813029F4C39A0895C49A38
:100DA0000895949A0895CF93C82F0E9492061FB871
:100DB000779BFECF8C2F0E94C7068FB1CF910895ED
:100DC000EF92FF920F931F93CF93DF93082F192F6A
:100DD000E62EF42E842F0E949206E11461F0E801C1
:100DE0000E0D111D8F2D0E94D306899300C000C0E7
:100DF000C017D107B9F7DF91CF911F910F91FF90E5
:100E0000EF9008951F93CF93DF93162FD72FC42F02
:100E1000C29861E00E94A406C11108C08DE08A95C5
:100E2000F1F70000DF91CF911F91089541E06C2F01
:100E3000812F9D2F0E94AE06F1CFC29A41E00E9401
:100E4000AE060895CF93DF930F92CDB7DEB78FEF45
:100E50008983C19800C000C0C19A00C000C041E0B1
:100E6000BE016F5F7F4F81E80E94020740E060E0B3
:100E700070E081EA0E94020740E060E070E088ECE8
:100E80000E94020740E060E070E08FEA0E940207E3
:100E90000F90DF91CF910895CF93C82F862F877041
:100EA00040E060E070E0806B0E94020740E060E09C
:100EB00070E08C2F8F700E9402078C2F82958F70AC
:100EC00040E060E070E080610E940207CF910895E9
:100ED0001F93CF93DF93CDB7DEB7C058D1090FB6BC
:100EE000F894DEBF0FBECDBF80E8FE013196DF0172
:100EF0001D928A95E9F710E0612F80E00E944C076F
:100F000060E8CE0101960E941D071F5F1830A1F70F
:100F1000C058DF4F0FB6F894DEBF0FBECDBFDF91D4
:100F2000CF911F910895262F372F805290E0FC011A
:100F3000EE0FFF1FEE0FFF1FE80FF91FE451FE4FEA
:100F4000D901C901059624912D933196A817B907A7
:100F5000D1F70895CF93DF9300D000D00F92CDB793
:100F6000DEB7BE016F5F7F4F0E94930765E0CE0141
:100F700001960E941D0780E090E00F900F900F9067
:100F80000F900F90DF91CF910895FF920F931F93D1
:100F9000CF93DF93082F192FF62E642F822F0E94F4
:100FA0004C07F11449F0E8010F0D111D89910E94C1
:100FB000AA07C017D107D1F7DF91CF911F910F91E9
:100FC000FF900895EF92FF920F931F93CF93E82E17
:100FD000F92E6115D1F08701E60EF11CE60EF11C29
:100FE000C0E0F801819191918F01FC0101900020F6
:100FF000E9F73197BF01681B790B22E04C2F0E9463
:10100000C507CF5F0E151F0561F7CF911F910F9197
:10101000FF90EF900895CF93DF93E82FF92FEF0122
:1010200021968181811539F090E00E94A40B89936B
:1010300088818111F9CFDF91CF910895CF93DF930C
:10104000E82FF92FEF0121968181811539F090E089
:101050000E94AC0B899388818111F9CFDF91CF91E8
:101060000895CF93DF93C82FD92F842F952F8230E7
:10107000910531F0039709F44FC0DF91CF910895A6
:101080008091C2028115C9F3FE01E80FF11DE80F3E
:10109000F11D808191810E940B084091C202FE01E6
:1010A000E40FF11DE40FF11D80819181FC0101909D
:1010B0000020E9F73197BF01681B790B22E00E94FD
:1010C000C5078091C20281508093C202FE01E80FE1
:1010D000F11DE80FF11D808191810E941E08409151
:1010E000C202C40FD11DC40FD11D88819981FC019A
:1010F00001900020E9F73197BF01681B790B22E0CE
:101100000E94C5072FE38DE093E02150804090407E
:10111000E1F700C00000B1CF8091C2026150770BAF
:10112000861717060CF0A9CFFE01E80FF11DE80F96
:10113000F11D808191810E940B084091C202FE0145
:10114000E40FF11DE40FF11D80819181FC010190FC
:101150000020E9F73197BF01681B790B22E00E945C
:10116000C5078091C2028F5F8093C202FE01E80F23
:10117000F11DE80FF11D808191810E941E084091B0
:10118000C202C40FD11DC40FD11D88819981FC01F9
:1011900001900020E9F73197BF01681B790B22E02D
:1011A0000E94C5072FE38DE093E0215080409040DE
:1011B000E1F700C0000061CFCF93DF9300D00F9222
:1011C000CDB7DEB762E084E00E94A40680E18A9594
:1011D000F1F700C042E063E0CE0101960E94E00614
:1011E0007A8169818B810F900F900F90DF91CF9161
:1011F0000895CF93DF930F92CDB7DEB762E083E01F
:101200000E94A40620E12A95F1F700C0198282E02D
:101210000E94D306898389811F928F9380EA92E08E
:101220009F938F930E94FE0B82E00E94D3068983D6
:1012300089811F928F9389EA92E09F938F930E94F6
:10124000FE0B82E00E94D306898389811F928F93CF
:1012500082EB92E09F938F930E94FE0B89810FB6E1
:10126000F894DEBF0FBECDBF0F90DF91CF910895F0
:101270005058BB27AA270E9450090C94A10A0E942B
:10128000930A38F00E949A0A20F039F49F3F19F42B
:1012900026F40C94900A0EF4E095E7FB0C948A0A6D
:1012A000E92F0E94B20A58F3BA176207730784073E
:1012B000950720F079F4A6F50C94D40A0EF4E09585
:1012C0000B2EBA2FA02D0B01B90190010C01CA0100
:1012D000A0011124FF27591B99F0593F50F4503EAB
:1012E00068F11A16F040A22F232F342F4427585F9D
:1012F000F3CF469537952795A795F0405395C9F7B5
:101300007EF41F16BA0B620B730B840BBAF091506C
:10131000A1F0FF0FBB1F661F771F881FC2F70EC00B
:10132000BA0F621F731F841F48F4879577956795DE
:10133000B795F7959E3F08F0B0CF9395880F08F0CA
:101340009927EE0F9795879508950E94B9090C94F7
:10135000A10A0E949A0A58F00E94930A40F029F4C8
:101360005F3F29F00C948A0A51110C94D50A0C9411
:10137000900A0E94B20A68F39923B1F3552391F3BE
:10138000951B550BBB27AA2762177307840738F0F4
:101390009F5F5F4F220F331F441FAA1FA9F335D051
:1013A0000E2E3AF0E0E832D091505040E695001C05
:1013B000CAF72BD0FE2F29D0660F771F881FBB1FBF
:1013C000261737074807AB07B0E809F0BB0B802D9D
:1013D000BF01FF2793585F4F3AF09E3F510578F0C9
:1013E0000C948A0A0C94D50A5F3FE4F3983ED4F338
:1013F000869577956795B795F7959F5FC9F7880F9D
:10140000911D9695879597F90895E1E0660F771FEE
:10141000881FBB1F621773078407BA0720F0621B7F
:10142000730B840BBA0BEE1F88F7E09508950E94AA
:101430001E0A6894B1110C94D50A08950E94BA0A44
:1014400088F09F5798F0B92F9927B751B0F0E1F085
:10145000660F771F881F991F1AF0BA95C9F714C035
:10146000B13091F00E94D40AB1E008950C94D40AEE
:10147000672F782F8827B85F39F0B93FCCF386956E
:1014800077956795B395D9F73EF4909580957095CB
:1014900061957F4F8F4F9F4F0895E89409C097FB48
:1014A0003EF490958095709561957F4F8F4F9F4F3B
:1014B0009923A9F0F92F96E9BB279395F69587957F
:1014C00077956795B795F111F8CFFAF4BB0F11F442
:1014D00060FF1BC06F5F7F4F8F4F9F4F16C08823E9
:1014E00011F096E911C0772321F09EE8872F762F1F
:1014F00005C0662371F096E8862F70E060E02AF060
:101500009A95660F771F881FDAF7880F969587954B
:1015100097F9089597F99F6780E870E060E0089573
:101520009FEF80EC089500240A94161617061806FB
:101530000906089500240A941216130614060506D7
:101540000895092E0394000C11F4882352F0BB0F68
:1015500040F4BF2B11F460FF04C06F5F7F4F8F4FCB
:101560009F4F089557FD9058440F551F59F05F3F06
:1015700071F04795880F97FB991F61F09F3F79F0B5
:1015800087950895121613061406551FF2CF469537
:10159000F1DF08C0161617061806991FF1CF8695B9
:1015A0007105610508940895E894BB27662777279D
:1015B000CB0197F908950E94EE0A0C94A10A0E94AB
:1015C000930A38F00E949A0A20F0952311F00C94A7
:1015D0008A0A0C94900A11240C94D50A0E94B20A2B
:1015E00070F3959FC1F3950F50E0551F629FF00176
:1015F000729FBB27F00DB11D639FAA27F00DB11D8F
:10160000AA1F649F6627B00DA11D661F829F222717
:10161000B00DA11D621F739FB00DA11D621F839F9E
:10162000A00D611D221F749F3327A00D611D231F74
:10163000849F600D211D822F762F6A2F11249F57C2
:1016400050409AF0F1F088234AF0EE0FFF1FBB1FC5
:10165000661F771F881F91505040A9F79E3F510584
:1016600080F00C948A0A0C94D50A5F3FE4F3983E0C
:10167000D4F3869577956795B795F795E7959F5F2E
:10168000C1F7FE2B880F911D9695879597F90895C0
:101690008F929F92AF92BF92CF92DF92EF92FF9282
:1016A000CF93DF93EC01688179818A819B816115F9
:1016B00071058105910521F464E279ED8BE597E0F0
:1016C0002DE133EF41E050E00E94191049015A0129
:1016D0009B01AC01A7EAB1E40E9438106B017C01C8
:1016E000ACEEB4EFA50194010E944610DC01CB01E1
:1016F0008C0D9D1DAE1DBF1DB7FF03C00197A10935
:10170000B04888839983AA83BB839F77DF91CF9169
:10171000FF90EF90DF90CF90BF90AF909F908F9011
:1017200008950E94480B089580E091E00E94480BC4
:101730000895A0E0B0E08093000190930101A09390
:101740000201B093030108959111089581548A51C3
:1017500008F4805E855A08959111089581568A5142
:1017600008F48052855808950F931F93CF93DF9309
:10177000EC018B01892B51F4672B41F4E0E0F0E0A0
:10178000CF01DF91CF911F910F9108956EE070E02E
:1017900081E090E00E942B0EFC01892B79F380E818
:1017A00083830115110571F01387028781E8838314
:1017B0008091C3029091C402892B21F4F093C4025A
:1017C000E093C3022097E1F2D187C08783818260D2
:1017D00083838091C5029091C602892B89F6F0938C
:1017E000C602E093C5028091C7029091C802892B7E
:1017F00039F6F093C802E093C702C2CFA0E0B0E090
:10180000E4E0FCE00C945B10AE014B5F5F4FFA012B
:1018100061917191AF018091C5029091C6020E94C1
:10182000400CE2E00C9477100F931F93CF93DF935B
:10183000E091C502F091C602238100E010E021FD95
:101840000EC00FEF1FEFC801DF91CF911F910F91D5
:1018500008950995892B11F00FEF1FEFCE01EC01D0
:1018600089916091C5027091C602DB011896ED91D5
:10187000FC918111EECF8AE00995892B21F3E1CF0C
:10188000ABE0B0E0E6E4FCE00C944E106C017B01B0
:101890008A01FC0117821682838181FFD9C19AE0F7
:1018A000592EF6012381F70123FD859123FF8191B4
:1018B0007F01811509F41FC1853239F423FD95910B
:1018C00023FF91917F01953229F4B60190E00E94A7
:1018D0008B0FE7CF30E0912C612C712CF0E27F165A
:1018E00040F59B32D9F058F49032D1F09332F1F0B8
:1018F0009E3299F576FCFFC0689476F806C09D325A
:1019000091F09033C1F4689470F8F70123FD95913C
:1019100023FF91917F019111E1CF29C0689471F863
:10192000689472F8F2CF689473F8EFCF689474F803
:10193000ECCF77FC1CC080ED890F8A30C8F676FEAC
:1019400005C0959C800D1124982EDFCF659C800DDD
:101950001124682E689475F8D8CF9C3619F46894D1
:1019600077F8D3CF9C3409F44BC0983671F2892FA5
:101970008F7D8554833008F445C0933609F466C0E2
:10198000933709F469C0933509F475C0943619F09A
:10199000993609F09FC0F80177FE95C06191719169
:1019A000819191918F01272D2F76822E97FF09C06B
:1019B00090958095709561957F4F8F4F9F4F68945C
:1019C00087F82AE030E0AE014F5F5F4F5A010E9476
:1019D000BB0F8A19A82E86FEC4C0882D8E7FA9143D
:1019E00008F0BEC084FE11C182FC05C1F82DFE7E48
:1019F0008F2EB92C882D8678811509F4BFC000C1BF
:101A000031E083CF3115F9F0085F1F4F8FE38983F1
:101A100088248394912CAE014F5F5F4F5A01E89464
:101A200077F873FC03C086149104B0F1811491041B
:101A3000D1F5611409F435CFB60180E290E00E943F
:101A40008B0F6A94F6CF0C5F1F4FE0CFF8018081B7
:101A500089830E5F1F4FDCCFF801A190B1908F01F9
:101A6000692D70E076FC02C06FEF7FEFC5010E9428
:101A7000800F4C01D4CFF801A190B1908F01692D56
:101A800070E076FC02C06FEF7FEFC5010E946E0F21
:101A90004C01689477F8C5CFB60180E290E00E94CF
:101AA0008B0F6A94C0CFF50177FC859177FE819109
:101AB0005F01B60190E00E948B0F61106A94F1E023
:101AC0008F1A9108B3CF61917191072E000C880B8A
:101AD000990B68CF872CE89484F82AE030E095379A
:101AE00039F1572D597F852E903799F058F4983554
:101AF000A9F09F36D9F0F601868197812B96EFE009
:101B00000C946A109837B9F774FC05C020E130E0F6
:101B10000FC0689484F8689482F8F8CF74FE03C00C
:101B2000872D8660882E20E132E002C028E030E078
:101B3000F80187FE10C061917191819191918F019F
:101B4000FE0131965F01AF010E94BB0F8A19A82EDA
:101B5000E89487F840CF6191719180E090E0EFCFF9
:101B6000882EBA2C84FE46CFFE01EA0DF11D80813D
:101B7000803309F043C0282D297E822E83FC0EC0BD
:101B800080FE4FC09A2CB61418F4960C9B18B62CF5
:101B9000862D8B196B1408F480E0B80EB61408F08B
:101BA00042C06B1884FE41C0B60180E390E00E9401
:101BB0008B0F82FE09C088E590E081FC02C088E7B7
:101BC00090E0B6010E948B0FA914D8F1AA94B12C11
:101BD0004FEFA41AB40ACE0101964C01A80EB91E0B
:101BE000F50182915F01B60190E00E948B0F8A148B
:101BF0009B04B1F71ECFB92C882EB6CF82FC02C051
:101C0000B394BCCFB394B394B9CFB92C882EF2CE91
:101C1000B60180E290E00E948B0F73947614C0F3BB
:101C2000B7CF7B2CFBCF612CBDCF882D867881155B
:101C300059F280E281FC8BE287FC8DE2B60190E0F4
:101C4000C1CFB60180E390E00E948B0F9A94BCCF85
:101C50008FEF9FEF53CF0F931F93CF93DF93869F09
:101C60008001879F100D969F100D1124C8010E94BE
:101C7000470EEC01009729F0A80160E070E00E9497
:101C8000790FCE01DF91CF911F910F9108950F939E
:101C90001F93CF93DF939C01029710F422E030E072
:101CA000E091C902F091CA0280E090E0A0E0B0E0CB
:101CB000309791F4009709F448C0821B930B84304D
:101CC0009105D0F58A819B816115710581F1FB0138
:101CD00093838283FE0111C040815181028113816F
:101CE00042175307D8F04217530799F4109761F041
:101CF00012960C93129713961C933296CF01DF9194
:101D0000CF911F910F9108950093C9021093CA02B9
:101D1000F4CF009751F04817590738F0AC01DB01B8
:101D2000CA01BD01DF01F801C3CFEF01F9CF9093E4
:101D3000CA028093C902CECFFE01E80FF91F21939A
:101D40003193029799838883D9CF4091CB025091E8
:101D5000CC024115510541F4409106015091070113
:101D60005093CC024093CB028091040190910501E5
:101D7000009741F48DB79EB76091080170910901F9
:101D8000861B970B4817590708F0B8CF841B950B93
:101D90008217930708F4B2CFB9016E5F7F4F8617A1
:101DA000970708F4ABCF640F751F7093CC02609354
:101DB000CB02FA0121933193A1CFCF93DF939C0102
:101DC0000097E9F0FC01329713821282C091C90298
:101DD000D091CA02DE0180E090E02097A1F48081DA
:101DE0009181280F391F8091CB029091CC028217EC
:101DF000930709F068C0F093CC02E093CB02DF9127
:101E0000CF910895DA01AE17BF0708F042C01296CD
:101E10004D915C911397CD014115510599F7DC0166
:101E20001396FC93EE9312974D915D919D01240FB3
:101E3000351FE217F30781F4208131812E5F3F4F78
:101E4000240F351FDC0111963C932E9322813381A0
:101E500013963C932E931297E0E0F0E08A819B81E9
:101E60000097B1F5DE018D919D918A0F9B1F209106
:101E7000CB023091CC022817390709F6309759F573
:101E80001092CA021092C902D093CC02C093CB0226
:101E9000B6CFB383A28340815181240F351FA2178F
:101EA000B30771F44E5F5F4F2D913C911197240F52
:101EB000351F3183208312962D913C9133832283E9
:101EC000009709F0ACCFF093CA02E093C90297CF14
:101ED000FE01EC01C3CF13821282D6CFFC01059024
:101EE000615070400110D8F7809590958E0F9F1F1C
:101EF0000895DC0101C06D9341505040E0F7089512
:101F0000FC016150704001900110D8F780959095C8
:101F10008E0F9F1F08950F931F93CF93DF93182F5A
:101F2000092FEB018B8181FD09C01FEF0FEF812F7E
:101F3000902FDF91CF911F910F91089582FF14C0D0
:101F40002E813F818C819D81281739073CF4E881DF
:101F5000F981CF0101969983888310838E819F81B7
:101F600001969F838E83E3CFE885F985812F0995BC
:101F7000892BA1F3DACFFA01AA27283051F12031B9
:101F800081F1E8946F936E7F6E5F7F4F8F4F9F4F0D
:101F9000AF4FB1E03ED0B4E03CD0670F781F891F4F
:101FA0009A1FA11D680F791F8A1F911DA11D6A0F1D
:101FB000711D811D911DA11D20D009F468943F91D0
:101FC0002AE0269F11243019305D3193DEF6CF01CF
:101FD0000895462F4770405D4193B3E00FD0C9F795
:101FE000F6CF462F4F70405D4A3318F0495D31FD02
:101FF0004052419302D0A9F7EACFB4E0A695979555
:10200000879577956795BA95C9F70097610571052A
:1020100008959B01AC010A2E069457954795379574
:102020002795BA95C9F7620F731F841F951FA01DCE
:102030000895052E97FB1EF400940E94301057FD62
:1020400007D00E94821007FC03D04EF40C9430108D
:1020500050954095309521953F4F4F4F5F4F0895D4
:1020600090958095709561957F4F8F4F9F4F089504
:102070000E94A410A59F900DB49F900DA49F800D69
:10208000911D11240895B7FF0C9438100E94381048
:10209000821B930B08952F923F924F925F926F9203
:1020A0007F928F929F92AF92BF92CF92DF92EF92E8
:1020B000FF920F931F93CF93DF93CDB7DEB7CA1B69
:1020C000DB0B0FB6F894DEBF0FBECDBF09942A8894
:1020D000398848885F846E847D848C849B84AA843C
:1020E000B984C884DF80EE80FD800C811B81AA81C9
:1020F000B981CE0FD11D0FB6F894DEBF0FBECDBF94
:10210000ED010895A1E21A2EAA1BBB1BFD010DC013
:10211000AA1FBB1FEE1FFF1FA217B307E407F50797
:1021200020F0A21BB30BE40BF50B661F771F881F73
:10213000991F1A9469F760957095809590959B0109
:10214000AC01BD01CF010895A29FB001B39FC001B2
:10215000A39F700D811D1124911DB29F700D811DD3
:0A2160001124911D0895F894FFCF9B
:10216A00010000000000CD022000470152015E017B
:10217A00620166016A016E016C616C616C616C00DE
:10218A002564202564202564202564007374617207
:10219A007420666F72206661656E002573200D0AD1
:1021AA00004C35005236004E797474207370696C95
:1021BA006C00446167656E732076697473006865A4
:1021CA00690070616100646567004E6569006A6F45
:1021DA00005374617274696E67205352414D2074C2
:1021EA006573742E2E2E00577269746520706861AB
:1021FA007365206572726F723A206578745F7261D6
:10220A006D5B2534645D203D2025303258202873CB
:10221A00686F756C642062652025303258290A205F
:10222A000D0052657472696576616C20706861731D
:10223A0065206572726F723A206578745F72616D9B
:10224A005B2534645D203D20253032582028736890
:10225A006F756C642062652025303258290A200D7A
:10226A00005352414D207465737420636F6D706C16
:10227A00657465642077697468200A25346420656A
:10228A0072726F727320696E20777269746520703A
:10229A006861736520616E64200A25346420657262
:1022AA00726F727320696E207265747269657661E5
:1022BA006C2070686173650A0A00486F6C64207448
:1022CA00696C2076656E73747265200D2000256432
:1022DA00200D200A00486F6C642074696C2068C362
:1022EA00B8797265200D2000486F6C64206E6564B1
:1022FA00200D2000486F6C64206F7070200D200044
:10230A00783A202564200D0A00793A202564200DA8
:0E231A000A0062746E3A202564200D0A00004D
:00000001FF
