:100000000C9438000C9455000C9455000C94550039
:100010000C9455000C9455000C9455000C9455000C
:100020000C9455000C9455000C9455000C945500FC
:100030000C9455000C9455000C9455000C945500EC
:100040000C9455000C9455000C9455000C945500DC
:100050000C9455000C9455000C9455000C945500CC
:100060000C9455000C9455000C9455000C945500BC
:1000700011241FBECFEFD4E0DEBFCDBF13E0A0E060
:10008000B1E0EAE8F5E102C005900D92AC31B107AC
:10009000D9F723E0ACE1B3E001C01D92AA32B20768
:1000A000E1F70E9457000C94C30A0C9400008FE102
:1000B00090E00E94870066E970E083E990E00E948A
:1000C000C4050E9499000E9440010E9438010E94CC
:1000D000A8008AE091E09F938F930E940E060E94F1
:1000E0003D030F900F9061E081E50E944E0382E096
:1000F0000E94430389EF90E00197F1F700C00000F0
:10010000F2CF5D9BFECF8CB981E090E0089590BD69
:1001100089B988E18AB98EE880BD08955F9BFECFDA
:100120008CB190E008950E94810008950E948E0095
:10013000089585B7806885BF80B7806280BF0895C5
:10014000FB01F05F80830895FC01F05F80810895DA
:10015000CF92DF92EF92FF920F931F93CF93DF9393
:1001600089E191E00E9424060E94B405C82ED92E90
:100170000E94B90500E010E0C0E0D0E00F2EFFE2E1
:10018000EF2EF1E0FF2EF02D06C00F5F1F4F01157F
:100190009CE01907F9F00E94B405282F392FF801C7
:1001A000FC5E80834081481781F333273F932F9370
:1001B0001F924F931F930F93FF92EF920E940E0690
:1001C00021968DB79EB708960FB6F8949EBF0FBEC6
:1001D0008DBFDBCF8C2D9D2D0E94B905C12CD12C5C
:1001E00000E010E00F2EFAE6EF2EF1E0FF2EF02DEA
:1001F00007C09FEFC91AD90AC1148CE0D806F9F0DC
:100200000E94B405282F392FF601FC5E80818217E9
:1002100081F333273F932F931F928F93DF92CF92D7
:10022000FF92EF920E940E060F5F1F4F8DB79EB791
:1002300008960FB6F8949EBF0FBE8DBFDACF1F93FE
:100240000F93DF93CF9389EA91E09F938F930E945E
:100250000E060F900F900F900F900F900F90DF9160
:10026000CF911F910F91FF90EF90DF90CF90089565
:100270008D9A1BBC1ABC80E48FBD89E08EBD0895A9
:100280001ABA30980895CF93DF930F92CDB7DEB7A7
:1002900010920010289BFECF482F50E020E030E065
:1002A000E0E0F0E1908199832F5F3F4F42175307C1
:1002B000CCF789810F90DF91CF9108950F931F9311
:1002C000CF93DF9382E092E00E9424062FEF88E034
:1002D0009DE3215080409040E1F700C0000081E0A4
:1002E0000E94430181E00E9443010CE113E0F80108
:1002F00080831F928F93C6E1D2E0DF93CF930E9459
:100300000E068DE192E00E9424068FEF98E0EDE367
:1003100081509040E040E1F700C0000081E00E9481
:10032000430181E00E944301F80181831F928F9372
:10033000DF93CF930E940E0680E392E00E94240692
:100340008FEF98E0EDE381509040E040E1F700C08E
:10035000000080E00E94430180E00E944301F80118
:1003600082831F928F93DF93CF930E940E068CE3BC
:1003700092E00E9424068FEF98E0EDE381509040D8
:10038000E040E1F700C0000080E00E94430180E00F
:100390000E944301F80183831F928F93DF93CF93D1
:1003A0000E940E068DB79EB740960FB6F8949EBF7A
:1003B0000FBE8DBFC801DF91CF911F910F9108959E
:1003C000CF92DF92EF92FF920F931F93CF93DF9321
:1003D000E82FF92FC080D12CC181D0E070E080E0FF
:1003E00090E00E946F04E62EF72E082F192FB60119
:1003F0006C0F7D1F072E000C880B990B0E946F0459
:1004000020E030E040E05FE30E94FB04262F372F1E
:10041000482F592F6E2D7F2D802F912F0E9458032A
:10042000E62EF72E082F192FBE016C197D09072E15
:10043000000C880B990B0E946F0420E030E040E034
:100440005FE30E94FB04262F372F482F592F6E2D74
:100450007F2D802F912F0E94C50320E030E048ECD3
:1004600052E40E94FB040E943704862FDF91CF9153
:100470001F910F91FF90EF90DF90CF900895CF9252
:10048000DF92EF92FF920F931F93CF93DF93E82FAA
:10049000F92FC280D12CC381D0E070E080E090E0E1
:1004A0000E946F04E62EF72E082F192FB6016C0F4D
:1004B0007D1F072E000C880B990B0E946F0420E013
:1004C00030E040E05FE30E94FB04262F372F482FE7
:1004D000592F6E2D7F2D802F912F0E945803E62ECD
:1004E000F72E082F192FBE016C197D09072E000C5D
:1004F000880B990B0E946F0420E030E040E05FE33E
:100500000E94FB04262F372F482F592F6E2D7F2D49
:10051000802F912F0E94C50320E030E048EC52E488
:100520000E94FB040E943704862FDF91CF911F9118
:100530000F91FF90EF90DF90CF900895803B0CF5E6
:10054000962F97FD9195943108F046C0262F062EE0
:10055000000C330B3F936F93282F082E000C330BA6
:100560003F938F9388E492E09F938F930E940E06AF
:100570000F900F900F900F900F900F9080E090E0F1
:100580000895813504F1962F97FD9195943120F5CA
:10059000262F062E000C330B3F936F93282F082E27
:1005A000000C330B3F938F9382E792E09F938F93DE
:1005B0000E940E060F900F900F900F900F900F90CB
:1005C00081E090E00895982F97FD9195943120F463
:1005D0006135ECF4603BB4F1262F062E000C330B92
:1005E0003F936F93282F082E000C330B3F938F936C
:1005F0008FEE92E09F938F930E940E060F900F90C4
:100600000F900F900F900F9084E090E00895262FA8
:10061000062E000C330B3F936F93282F082E000CEF
:10062000330B3F938F938DE992E09F938F930E94BA
:100630000E060F900F900F900F900F900F9082E08A
:1006400090E00895262F062E000C330B3F936F93F6
:10065000282F082E000C330B3F938F9385EC92E0EC
:100660009F938F930E940E060F900F900F900F9004
:100670000F900F9083E090E0089587B3886A87BB5E
:1006800089E58DB90895813019F0823021F00895FF
:10069000C398C49A0895C498C39A0895CF93C82F55
:1006A000862F0E944303CFB9779BFECFCF91089549
:1006B0005058BB27AA270E9470030C94C1040E94C3
:1006C000B30438F00E94BA0420F039F49F3F19F4C3
:1006D00026F40C94B0040EF4E095E7FB0C94AA0405
:1006E000E92F0E94D20458F3BA17620773078407F0
:1006F000950720F079F4A6F50C94F4040EF4E09537
:100700000B2EBA2FA02D0B01B90190010C01CA01CB
:10071000A0011124FF27591B99F0593F50F4503E76
:1007200068F11A16F040A22F232F342F4427585F68
:10073000F3CF469537952795A795F0405395C9F780
:100740007EF41F16BA0B620B730B840BBAF0915038
:10075000A1F0FF0FBB1F661F771F881FC2F70EC0D7
:10076000BA0F621F731F841F48F4879577956795AA
:10077000B795F7959E3F08F0B0CF9395880F08F096
:100780009927EE0F9795879508950E94D9030C94A9
:10079000C1040E94BA0458F00E94B30440F029F446
:1007A0005F3F29F00C94AA0451110C94F5040C94A9
:1007B000B0040E94D20468F39923B1F3552391F356
:1007C000951B550BBB27AA2762177307840738F0C0
:1007D0009F5F5F4F220F331F441FAA1FA9F335D01D
:1007E0000E2E3AF0E0E832D091505040E695001CD1
:1007F000CAF72BD0FE2F29D0660F771F881FBB1F8B
:10080000261737074807AB07B0E809F0BB0B802D68
:10081000BF01FF2793585F4F3AF09E3F510578F094
:100820000C94AA040C94F5045F3FE4F3983ED4F3CF
:10083000869577956795B795F7959F5FC9F7880F68
:10084000911D9695879597F90895E1E0660F771FBA
:10085000881FBB1F621773078407BA0720F0621B4B
:10086000730B840BBA0BEE1F88F7E09508950E9476
:100870003E046894B1110C94F50408950E94DA04C2
:1008800088F09F5798F0B92F9927B751B0F0E1F051
:10089000660F771F881F991F1AF0BA95C9F714C001
:1008A000B13091F00E94F404B1E008950C94F40486
:1008B000672F782F8827B85F39F0B93FCCF386953A
:1008C00077956795B395D9F73EF490958095709597
:1008D00061957F4F8F4F9F4F0895E89409C097FB14
:1008E0003EF490958095709561957F4F8F4F9F4F07
:1008F0009923A9F0F92F96E9BB279395F69587954B
:1009000077956795B795F111F8CFFAF4BB0F11F40D
:1009100060FF1BC06F5F7F4F8F4F9F4F16C08823B4
:1009200011F096E911C0772321F09EE8872F762FEA
:1009300005C0662371F096E8862F70E060E02AF02B
:100940009A95660F771F881FDAF7880F9695879517
:1009500097F9089597F99F6780E870E060E008953F
:100960009FEF80EC089500240A94161617061806C7
:100970000906089500240A941216130614060506A3
:100980000895092E0394000C11F4882352F0BB0F34
:1009900040F4BF2B11F460FF04C06F5F7F4F8F4F97
:1009A0009F4F089557FD9058440F551F59F05F3FD2
:1009B00071F04795880F97FB991F61F09F3F79F081
:1009C00087950895121613061406551FF2CF469503
:1009D000F1DF08C0161617061806991FF1CF869585
:1009E0007105610508940895E894BB276627772769
:1009F000CB0197F908950E940E050C94C1040E9442
:100A0000B30438F00E94BA0420F0952311F00C943E
:100A1000AA040C94B00411240C94F5040E94D2048E
:100A200070F3959FC1F3950F50E0551F629FF00141
:100A3000729FBB27F00DB11D639FAA27F00DB11D5A
:100A4000AA1F649F6627B00DA11D661F829F2227E3
:100A5000B00DA11D621F739FB00DA11D621F839F6A
:100A6000A00D611D221F749F3327A00D611D231F40
:100A7000849F600D211D822F762F6A2F11249F578E
:100A800050409AF0F1F088234AF0EE0FFF1FBB1F91
:100A9000661F771F881F91505040A9F79E3F510550
:100AA00080F00C94AA040C94F5045F3FE4F3983EA4
:100AB000D4F3869577956795B795F795E7959F5FFA
:100AC000C1F7FE2B880F911D9695879597F908958C
:100AD0008F929F92AF92BF92CF92DF92EF92FF924E
:100AE000CF93DF93EC01688179818A819B816115C5
:100AF00071058105910521F464E279ED8BE597E0BC
:100B00002DE133EF41E050E00E94290A49015A01EA
:100B10009B01AC01A7EAB1E40E94480A6B017C0189
:100B2000ACEEB4EFA50194010E94560ADC01CB01A2
:100B30008C0D9D1DAE1DBF1DB7FF03C00197A10900
:100B4000B04888839983AA83BB839F77DF91CF9135
:100B5000FF90EF90DF90CF90BF90AF909F908F90DD
:100B600008950E946805089580E091E00E9468055C
:100B70000895A0E0B0E08093000190930101A0935C
:100B80000201B093030108950F931F93CF93DF9356
:100B9000EC018B01892B51F4672B41F4E0E0F0E08C
:100BA000CF01DF91CF911F910F9108956EE070E01A
:100BB00081E090E00E943B08FC01892B79F380E8FA
:100BC00083830115110571F01387028781E8838300
:100BD0008091200390912103892B21F4F09321032C
:100BE000E09320032097E1F2D187C0878381826060
:100BF00083838091220390912303892B89F6F093BC
:100C00002303E09322038091240390912503892BF1
:100C100039F6F0932503E0932403C2CFA0E0B0E0BF
:100C2000E4E1F6E00C946B0AAE014B5F5F4FFA0112
:100C300061917191AF0180912203909123030E94F1
:100C40005006E2E00C94870A0F931F93CF93DF9333
:100C5000E0912203F0912303238100E010E021FDC5
:100C60000EC00FEF1FEFC801DF91CF911F910F91C1
:100C700008950995892B11F00FEF1FEFCE01EC01BC
:100C800089916091220370912303DB011896ED9105
:100C9000FC918111EECF8AE00995892B21F3E1CFF8
:100CA000ABE0B0E0E6E5F6E00C945E0A6C017B0197
:100CB0008A01FC0117821682838181FFD9C19AE0E3
:100CC000592EF6012381F70123FD859123FF8191A0
:100CD0007F01811509F41FC1853239F423FD9591F7
:100CE00023FF91917F01953229F4B60190E00E9493
:100CF0009B09E7CF30E0912C612C712CF0E27F163C
:100D000040F59B32D9F058F49032D1F09332F1F0A3
:100D10009E3299F576FCFFC0689476F806C09D3245
:100D200091F09033C1F4689470F8F70123FD959128
:100D300023FF91917F019111E1CF29C0689471F84F
:100D4000689472F8F2CF689473F8EFCF689474F8EF
:100D5000ECCF77FC1CC080ED890F8A30C8F676FE98
:100D600005C0959C800D1124982EDFCF659C800DC9
:100D70001124682E689475F8D8CF9C3619F46894BD
:100D800077F8D3CF9C3409F44BC0983671F2892F91
:100D90008F7D8554833008F445C0933609F466C0CE
:100DA000933709F469C0933509F475C0943619F086
:100DB000993609F09FC0F80177FE95C06191719155
:100DC000819191918F01272D2F76822E97FF09C057
:100DD00090958095709561957F4F8F4F9F4F689448
:100DE00087F82AE030E0AE014F5F5F4F5A010E9462
:100DF000CB098A19A82E86FEC4C0882D8E7FA9141F
:100E000008F0BEC084FE11C182FC05C1F82DFE7E33
:100E10008F2EB92C882D8678811509F4BFC000C1AA
:100E200031E083CF3115F9F0085F1F4F8FE38983DD
:100E300088248394912CAE014F5F5F4F5A01E89450
:100E400077F873FC03C086149104B0F18114910407
:100E5000D1F5611409F435CFB60180E290E00E942B
:100E60009B096A94F6CF0C5F1F4FE0CFF801808199
:100E700089830E5F1F4FDCCFF801A190B1908F01E5
:100E8000692D70E076FC02C06FEF7FEFC5010E9414
:100E900090094C01D4CFF801A190B1908F01692D38
:100EA00070E076FC02C06FEF7FEFC5010E947E0903
:100EB0004C01689477F8C5CFB60180E290E00E94BB
:100EC0009B096A94C0CFF50177FC859177FE8191EB
:100ED0005F01B60190E00E949B0961106A94F1E005
:100EE0008F1A9108B3CF61917191072E000C880B76
:100EF000990B68CF872CE89484F82AE030E0953786
:100F000039F1572D597F852E903799F058F498353F
:100F1000A9F09F36D9F0F601868197812B96EFE0F4
:100F20000C947A0A9837B9F774FC05C020E130E0D8
:100F30000FC0689484F8689482F8F8CF74FE03C0F8
:100F4000872D8660882E20E132E002C028E030E064
:100F5000F80187FE10C061917191819191918F018B
:100F6000FE0131965F01AF010E94CB098A19A82EBC
:100F7000E89487F840CF6191719180E090E0EFCFE5
:100F8000882EBA2C84FE46CFFE01EA0DF11D808129
:100F9000803309F043C0282D297E822E83FC0EC0A9
:100FA00080FE4FC09A2CB61418F4960C9B18B62CE1
:100FB000862D8B196B1408F480E0B80EB61408F077
:100FC00042C06B1884FE41C0B60180E390E00E94ED
:100FD0009B0982FE09C088E590E081FC02C088E799
:100FE00090E0B6010E949B09A914D8F1AA94B12CF3
:100FF0004FEFA41AB40ACE0101964C01A80EB91EF7
:10100000F50182915F01B60190E00E949B098A146C
:101010009B04B1F71ECFB92C882EB6CF82FC02C03C
:10102000B394BCCFB394B394B9CFB92C882EF2CE7D
:10103000B60180E290E00E949B0973947614C0F39D
:10104000B7CF7B2CFBCF612CBDCF882D8678811547
:1010500059F280E281FC8BE287FC8DE2B60190E0E0
:10106000C1CFB60180E390E00E949B099A94BCCF67
:101070008FEF9FEF53CF0F931F93CF93DF93869FF5
:101080008001879F100D969F100D1124C8010E94AA
:101090005708EC01009729F0A80160E070E00E9479
:1010A0008909CE01DF91CF911F910F9108950F9380
:1010B0001F93CF93DF939C01029710F422E030E05E
:1010C000E0912603F091270380E090E0A0E0B0E0FB
:1010D000309791F4009709F448C0821B930B843039
:1010E0009105D0F58A819B816115710581F1FB0124
:1010F00093838283FE0111C040815181028113815B
:1011000042175307D8F04217530799F4109761F02C
:1011100012960C93129713961C933296CF01DF917F
:10112000CF911F910F9108950093260310932703E9
:10113000F4CF009751F04817590738F0AC01DB01A4
:10114000CA01BD01DF01F801C3CFEF01F9CF9093D0
:10115000270380932603CECFFE01E80FF91F2193CA
:101160003193029799838883D9CF40912803509176
:1011700029034115510541F44091060150910701A1
:101180005093290340932803809104019091050115
:10119000009741F48DB79EB76091080170910901E5
:1011A000861B970B4817590708F0B8CF841B950B7F
:1011B0008217930708F4B2CFB9016E5F7F4F86178D
:1011C000970708F4ABCF640F751F709329036093E2
:1011D0002803FA0121933193A1CFCF93DF939C0190
:1011E0000097E9F0FC01329713821282C091260326
:1011F000D0912703DE0180E090E02097A1F4808168
:101200009181280F391F809128039091290382171B
:10121000930709F068C0F0932903E0932803DF9156
:10122000CF910895DA01AE17BF0708F042C01296B9
:101230004D915C911397CD014115510599F7DC0152
:101240001396FC93EE9312974D915D919D01240F9F
:10125000351FE217F30781F4208131812E5F3F4F64
:10126000240F351FDC0111963C932E93228133818C
:1012700013963C932E931297E0E0F0E08A819B81D5
:101280000097B1F5DE018D919D918A0F9B1F2091F2
:101290002803309129032817390709F6309759F5A3
:1012A0001092270310922603D0932903C09328039A
:1012B000B6CFB383A28340815181240F351FA2177B
:1012C000B30771F44E5F5F4F2D913C911197240F3E
:1012D000351F3183208312962D913C9133832283D5
:1012E000009709F0ACCFF0932703E093260397CF44
:1012F000FE01EC01C3CF13821282D6CFFC01059010
:10130000615070400110D8F7809590958E0F9F1F07
:101310000895DC0101C06D9341505040E0F70895FD
:10132000FC016150704001900110D8F780959095B4
:101330008E0F9F1F08950F931F93CF93DF93182F46
:10134000092FEB018B8181FD09C01FEF0FEF812F6A
:10135000902FDF91CF911F910F91089582FF14C0BC
:101360002E813F818C819D81281739073CF4E881CB
:10137000F981CF0101969983888310838E819F81A3
:1013800001969F838E83E3CFE885F985812F0995A8
:10139000892BA1F3DACFFA01AA27283051F12031A5
:1013A00081F1E8946F936E7F6E5F7F4F8F4F9F4FF9
:1013B000AF4FB1E03ED0B4E03CD0670F781F891F3B
:1013C0009A1FA11D680F791F8A1F911DA11D6A0F09
:1013D000711D811D911DA11D20D009F468943F91BC
:1013E0002AE0269F11243019305D3193DEF6CF01BB
:1013F0000895462F4770405D4193B3E00FD0C9F781
:10140000F6CF462F4F70405D4A3318F0495D31FDED
:101410004052419302D0A9F7EACFB4E0A695979540
:10142000879577956795BA95C9F700976105710516
:1014300008959B01AC010A2E069457954795379560
:101440002795BA95C9F7620F731F841F951FA01DBA
:101450000895052E97FB1EF400940E94400A57FD44
:1014600007D00E94920A07FC03D04EF40C94400A65
:1014700050954095309521953F4F4F4F5F4F0895C0
:1014800090958095709561957F4F8F4F9F4F0895F0
:101490000E94B40AA59F900DB49F900DA49F800D4B
:1014A000911D11240895B7FF0C94480A0E94480A20
:1014B000821B930B08952F923F924F925F926F92EF
:1014C0007F928F929F92AF92BF92CF92DF92EF92D4
:1014D000FF920F931F93CF93DF93CDB7DEB7CA1B55
:1014E000DB0B0FB6F894DEBF0FBECDBF09942A8880
:1014F000398848885F846E847D848C849B84AA8428
:10150000B984C884DF80EE80FD800C811B81AA81B4
:10151000B981CE0FD11D0FB6F894DEBF0FBECDBF7F
:10152000ED010895A1E21A2EAA1BBB1BFD010DC0FF
:10153000AA1FBB1FEE1FFF1FA217B307E407F50783
:1015400020F0A21BB30BE40BF50B661F771F881F5F
:10155000991F1A9469F760957095809590959B01F5
:10156000AC01BD01CF010895A29FB001B39FC0019E
:10157000A39F700D811D1124911DB29F700D811DBF
:0A1580001124911D0895F894FFCF87
:10158A000100000000002A032000737461727420B5
:10159A00666F72206661656E005374617274696E5B
:1015AA0067205352414D20746573742E2E2E0057B6
:1015BA0072697465207068617365206572726F72F2
:1015CA003A206578745F72616D5B2534645D203DF5
:1015DA002025303258202873686F756C6420626544
:1015EA002025303258290A200D0052657472696527
:1015FA0076616C207068617365206572726F723AE9
:10160A00206578745F72616D5B2534645D203D20CE
:10161A0025303258202873686F756C642062652003
:10162A0025303258290A200D005352414D20746545
:10163A00737420636F6D706C657465642077697468
:10164A0068200A253464206572726F727320696E8D
:10165A0020777269746520706861736520616E64B1
:10166A00200A253464206572726F727320696E20B5
:10167A0072657472696576616C2070686173650A57
:10168A000A00486F6C642074696C2076656E737406
:10169A007265200D20002564200D200A00486F6C19
:1016AA00642074696C2068C3B8797265200D2000C3
:1016BA00486F6C64206E6564200D2000486F6C646E
:1016CA00206F7070200D2000204C4546542C207845
:1016DA0020616E64207920696E20636F6E6469747C
:1016EA00696F6E3A202825642C20256429200D2054
:1016FA000A002052494748542C207820616E642001
:10170A007920696E20636F6E646974696F6E3A201E
:10171A002825642C20256429200D200A00205550F4
:10172A002C207820616E64207920696E20636F6EA8
:10173A00646974696F6E3A202825642C202564290F
:10174A00200D200A0020444F574E2C207820616E2D
:10175A0064207920696E20636F6E646974696F6EA4
:10176A003A202825642C20256429200D200A0020EF
:10177A004E45555452414C2C207820616E64207994
:10178A0020696E20636F6E646974696F6E3A2028EF
:0C179A0025642C20256429200D200A0065
:00000001FF
