:100000000C9438000C9442000C9442000C94420072
:100010000C9442000C9442000C9442000C94420058
:100020000C9442000C9442000C9442000C94420048
:100030000C9442000C9442000C9442000C94420038
:100040000C9442000C9442000C9442000C94420028
:100050000C9442000C9442000C9442000C94420018
:100060000C9442000C9442000C9442000C94420008
:1000700011241FBECFEFD4E0DEBFCDBF0E944400ED
:100080000C945F000C9400008FE190E00E945000FF
:1000900081E60E944C00FCCF5D9BFECF8CB9089599
:1000A00090BD89B988E18AB98EE880BD08958FE155
:1000B00090E00E9450005F9BFECF8CB10895F894B1
:0200C000FFCF70
:00000001FF
